{
  "contractName": "Election",
  "abi": [
    {
      "anonymous": false,
      "inputs": [
        {
          "indexed": false,
          "internalType": "string",
          "name": "message",
          "type": "string"
        },
        {
          "indexed": false,
          "internalType": "uint256",
          "name": "candidateId",
          "type": "uint256"
        }
      ],
      "name": "HasAlreadyVotedEvent",
      "type": "event"
    },
    {
      "anonymous": false,
      "inputs": [
        {
          "indexed": false,
          "internalType": "uint256",
          "name": "voterId",
          "type": "uint256"
        },
        {
          "indexed": false,
          "internalType": "uint256",
          "name": "candidateId",
          "type": "uint256"
        }
      ],
      "name": "votedEvent",
      "type": "event"
    },
    {
      "inputs": [
        {
          "internalType": "uint256",
          "name": "",
          "type": "uint256"
        }
      ],
      "name": "alreadyVoted",
      "outputs": [
        {
          "internalType": "bool",
          "name": "",
          "type": "bool"
        }
      ],
      "stateMutability": "view",
      "type": "function",
      "constant": true
    },
    {
      "inputs": [
        {
          "internalType": "uint256",
          "name": "",
          "type": "uint256"
        }
      ],
      "name": "candidates",
      "outputs": [
        {
          "internalType": "uint256",
          "name": "id",
          "type": "uint256"
        },
        {
          "internalType": "string",
          "name": "name",
          "type": "string"
        },
        {
          "internalType": "uint256",
          "name": "voteCount",
          "type": "uint256"
        },
        {
          "internalType": "bool",
          "name": "exists",
          "type": "bool"
        }
      ],
      "stateMutability": "view",
      "type": "function",
      "constant": true
    },
    {
      "inputs": [
        {
          "internalType": "uint256",
          "name": "",
          "type": "uint256"
        }
      ],
      "name": "votes",
      "outputs": [
        {
          "internalType": "uint256",
          "name": "voteBy",
          "type": "uint256"
        },
        {
          "internalType": "uint256",
          "name": "voteFor",
          "type": "uint256"
        }
      ],
      "stateMutability": "view",
      "type": "function",
      "constant": true
    },
    {
      "inputs": [
        {
          "internalType": "uint256",
          "name": "voterId",
          "type": "uint256"
        },
        {
          "internalType": "uint256",
          "name": "candidateId",
          "type": "uint256"
        },
        {
          "internalType": "string",
          "name": "name",
          "type": "string"
        }
      ],
      "name": "vote",
      "outputs": [],
      "stateMutability": "nonpayable",
      "type": "function"
    },
    {
      "inputs": [],
      "name": "getVotedCandidates",
      "outputs": [
        {
          "components": [
            {
              "internalType": "uint256",
              "name": "voteBy",
              "type": "uint256"
            },
            {
              "internalType": "uint256",
              "name": "voteFor",
              "type": "uint256"
            }
          ],
          "internalType": "struct Election.VoteInfo[]",
          "name": "",
          "type": "tuple[]"
        }
      ],
      "stateMutability": "view",
      "type": "function",
      "constant": true
    },
    {
      "inputs": [
        {
          "internalType": "uint256",
          "name": "candidateId",
          "type": "uint256"
        }
      ],
      "name": "isCandidate",
      "outputs": [
        {
          "internalType": "bool",
          "name": "",
          "type": "bool"
        }
      ],
      "stateMutability": "view",
      "type": "function",
      "constant": true
    }
  ],
  "bytecode": "0x608060405234801561001057600080fd5b50610854806100206000396000f3fe608060405234801561001057600080fd5b50600436106100625760003560e01c80633477ee2e146100675780635df8133014610093578063a1bbfc05146100cf578063ab60dce9146100e4578063b1e7a1f0146100f9578063e55103fb1461012c575b600080fd5b61007a6100753660046104f6565b610152565b60405161008a949392919061050f565b60405180910390f35b6100ba6100a13660046104f6565b6001602081905260009182526040909120805491015482565b6040805192835260208301919091520161008a565b6100e26100dd36600461058b565b610207565b005b6100ec610424565b60405161008a919061064f565b61011c6101073660046104f6565b60026020526000908152604090205460ff1681565b604051901515815260200161008a565b61011c61013a3660046104f6565b60009081526020819052604090206003015460ff1690565b600060208190529081526040902080546001820180549192916101749061069e565b80601f01602080910402602001604051908101604052809291908181526020018280546101a09061069e565b80156101ed5780601f106101c2576101008083540402835291602001916101ed565b820191906000526020600020905b8154815290600101906020018083116101d057829003601f168201915b50505050600283015460039093015491929160ff16905084565b60008381526002602052604090205460ff161561027d57604080518181526011818301527012185cc8185b1c9958591e481d9bdd1959607a1b60608201526020810184905290517f032edec8a123131e70f4d408ddfbf38efc973b9c8875783edbcf4ba5971083139181900360800190a1600080fd5b600082116102d15760405162461bcd60e51b815260206004820152601860248201527f43616e646964617465206964206d757374206265203e20300000000000000000604482015260640160405180910390fd5b60008281526020819052604090206003015460ff161561035b576040805160808101825283815260208082018481526000838501819052606084018190528681529182905292902081518155915190919060018201906103319082610721565b50604082015160028201556060909101516003909101805460ff191691151591909117905561037e565b6000828152602081905260408120600201805491610378836107e1565b91905055505b604080518082018252848152602080820185815260038054600090815260019384905294852093518455905192909101919091558054916103be836107e1565b909155505060008381526002602052604090819020805460ff19166001179055517fb7e338857470376b2fa57b9b2cbf51a8724d543a80bf4fb392a2aa9dad1118a2906104179085908590918252602082015260400190565b60405180910390a1505050565b6060600060035467ffffffffffffffff81111561044357610443610575565b60405190808252806020026020018201604052801561048857816020015b60408051808201909152600080825260208201528152602001906001900390816104615790505b50905060005b6003548110156104f057600081815260016020818152604092839020835180850190945280548452909101549082015282518390839081106104d2576104d2610808565b602002602001018190525080806104e8906107e1565b91505061048e565b50919050565b60006020828403121561050857600080fd5b5035919050565b84815260006020608081840152855180608085015260005b818110156105435787810183015185820160a001528201610527565b50600060a0828601015260a0601f19601f83011685010192505050836040830152821515606083015295945050505050565b634e487b7160e01b600052604160045260246000fd5b6000806000606084860312156105a057600080fd5b8335925060208401359150604084013567ffffffffffffffff808211156105c657600080fd5b818601915086601f8301126105da57600080fd5b8135818111156105ec576105ec610575565b604051601f8201601f19908116603f0116810190838211818310171561061457610614610575565b8160405282815289602084870101111561062d57600080fd5b8260208601602083013760006020848301015280955050505050509250925092565b602080825282518282018190526000919060409081850190868401855b828110156106915781518051855286015186850152928401929085019060010161066c565b5091979650505050505050565b600181811c908216806106b257607f821691505b6020821081036104f057634e487b7160e01b600052602260045260246000fd5b601f82111561071c57600081815260208120601f850160051c810160208610156106f95750805b601f850160051c820191505b8181101561071857828155600101610705565b5050505b505050565b815167ffffffffffffffff81111561073b5761073b610575565b61074f81610749845461069e565b846106d2565b602080601f831160018114610784576000841561076c5750858301515b600019600386901b1c1916600185901b178555610718565b600085815260208120601f198616915b828110156107b357888601518255948401946001909101908401610794565b50858210156107d15787850151600019600388901b60f8161c191681555b5050505050600190811b01905550565b60006001820161080157634e487b7160e01b600052601160045260246000fd5b5060010190565b634e487b7160e01b600052603260045260246000fdfea2646970667358221220f041d8925808994a4bebab0b57fdd5c566cc4f9ee73e0fdac2a0e5d9b4ecdd9564736f6c63430008100033",
  "immutableReferences": {},
  "source": "// SPDX-License-Identifier: MIT \npragma solidity ^0.8.16;\n\ncontract Election {\n    // Model a Candidate\n    struct Candidate {\n        uint id;\n        string name;\n        uint voteCount;\n        bool exists;\n    }\n\n    struct VoteInfo {\n        uint voteBy;\n        uint voteFor;\n    }\n\n    // Store Candidates\n    mapping(uint => Candidate) public candidates;\n\n    // Mapping voteNumber to Vote\n    mapping(uint => VoteInfo) public votes;\n\n    // Mapping voterId has already voted\n    mapping(uint => bool) public alreadyVoted;\n\n    uint voteCount;\n    \n    // voted event\n    event votedEvent (uint voterId, uint candidateId);\n\n    event HasAlreadyVotedEvent(string message, uint candidateId);\n\n    // core function\n    function vote (uint voterId, uint candidateId, string memory name) public {\n        // require voter doesn't vote before\n        if (alreadyVoted[voterId]) {\n            emit HasAlreadyVotedEvent(\"Has already voted\", candidateId);\n            require(false);\n        }\n        \n        // require a valid candidate, revert execution\n        require(candidateId > 0, \"Candidate id must be > 0\");\n\n        if (isCandidate(candidateId)) { \n            candidates[candidateId] = Candidate(candidateId, name, 0, false);\n        } \n        else {\n            // update candidate vote Count\n            candidates[candidateId].voteCount ++;\n        }\n        votes[voteCount] = VoteInfo(voterId, candidateId);\n        voteCount++;\n\n        // store candidates voted\n        alreadyVoted[voterId] = true;\n        \n        // trigger voted event\n        emit votedEvent(voterId, candidateId);\n    }\n\n    function getVotedCandidates() public view returns (VoteInfo[] memory) {\n        VoteInfo[] memory voteArray = new VoteInfo[](voteCount);\n        for (uint256 i = 0; i < voteCount; i++) {\n            voteArray[i] = votes[i];\n        }\n        return voteArray;\n    }\n\n    function isCandidate(uint256 candidateId) public view returns (bool) {\n        return candidates[candidateId].exists;\n    }\n}\n",
  "sourcePath": "/Users/camnh/Desktop/NCKH/Blockchain/election/smart-contracts/contracts/Election.sol",
  "compiler": {
    "name": "solc",
    "version": "0.8.16+commit.07a7930e.Emscripten.clang"
  },
  "schemaVersion": "3.4.16",
  "updatedAt": "2024-07-15T16:22:14.268Z",
  "networkType": "ethereum",
  "devdoc": {
    "kind": "dev",
    "methods": {},
    "version": 1
  },
  "userdoc": {
    "kind": "user",
    "methods": {},
    "version": 1
  }
}